{
  "abi": [
    {
      "inputs": [
        {
          "internalType": "contract Monaco",
          "name": "_monaco",
          "type": "address"
        }
      ],
      "stateMutability": "nonpayable",
      "type": "constructor"
    },
    {
      "inputs": [
        {
          "components": [
            {
              "internalType": "uint32",
              "name": "balance",
              "type": "uint32"
            },
            {
              "internalType": "uint32",
              "name": "speed",
              "type": "uint32"
            },
            {
              "internalType": "uint32",
              "name": "y",
              "type": "uint32"
            },
            {
              "internalType": "contract Car",
              "name": "car",
              "type": "address"
            }
          ],
          "internalType": "struct Monaco.CarData[]",
          "name": "allCars",
          "type": "tuple[]"
        },
        {
          "internalType": "uint256",
          "name": "ourCarIndex",
          "type": "uint256"
        }
      ],
      "name": "takeYourTurn",
      "outputs": [],
      "stateMutability": "nonpayable",
      "type": "function"
    }
  ],
  "bytecode": {
    "object": "0x60a060405234801561001057600080fd5b506040516119d83803806119d883398101604081905261002f91610040565b6001600160a01b0316608052610070565b60006020828403121561005257600080fd5b81516001600160a01b038116811461006957600080fd5b9392505050565b6080516118f26100e66000396000818161016e01528181610368015281816107540152818161085c0152818161090f015281816109ba01528181610a4201528181610af601528181610b7401528181610c28015281816110f5015281816111fd015281816113a7015261145c01526118f26000f3fe608060405234801561001057600080fd5b506004361061002b5760003560e01c80630c73edf414610030575b600080fd5b61004361003e366004611572565b610045565b005b36838383818110610058576100586115ed565b90506080020190508060400160208101906100739190611635565b63ffffffff1660000361009f5761009961009236839003830183611650565b6001610722565b50505050565b36848460008181106100b3576100b36115ed565b905060800201905036858560018181106100cf576100cf6115ed565b905060800201905036868660028181106100eb576100eb6115ed565b90506080020190506000610110858036038101906101099190611650565b8585610cb1565b905060008061011f8786610dd6565b9050600061012d8887610ee3565b9050600061013c898888610fe1565b6040517f503a6982000000000000000000000000000000000000000000000000000000008152600160048201529091507f000000000000000000000000000000000000000000000000000000000000000073ffffffffffffffffffffffffffffffffffffffff169063503a698290602401602060405180830381865afa1580156101ca573d6000803e3d6000fd5b505050506040513d601f19601f820116820180604052508101906101ee919061170f565b60000361020757610207610092368b90038b018b611650565b61012c61021a60608b0160408c01611635565b63ffffffff1610801561022b575089155b80156102375750601e85105b1561024a57505050505050505050505050565b61025a60608a0160408b01611635565b63ffffffff166103071080610285575061027a6060890160408a01611635565b63ffffffff16610307105b806102c3575061029b6060880160408901611635565b63ffffffff166103071080156102c3575060008160028111156102c0576102c0611728565b14155b156104125760018160028111156102dc576102dc611728565b036102fa576102fa6102f3368b90038b018b611650565b6002610722565b600281600281111561030e5761030e611728565b0361032c5761032c610325368b90038b018b611650565b6003610722565b89158015906103ea57506040517f54192e41000000000000000000000000000000000000000000000000000000008152600160048201526064907f000000000000000000000000000000000000000000000000000000000000000073ffffffffffffffffffffffffffffffffffffffff16906354192e4190602401602060405180830381865afa1580156103c4573d6000803e3d6000fd5b505050506040513d601f19601f820116820180604052508101906103e8919061170f565b105b80156103f65750603285105b156104125761041261040d368b90038b018b611650565b6110c3565b8960000361050557600083600281111561042e5761042e611728565b14801561044c5750600082600281111561044a5761044a611728565b145b6106eb57600083600281111561046457610464611728565b1480156104835750600082600281111561048057610480611728565b14155b1561049a576104958988600080611284565b6106eb565b60018360028111156104ae576104ae611728565b036104c157610495898860006001611284565b60018360028111156104d5576104d5611728565b1480156104f3575060028160028111156104f1576104f1611728565b145b15610495576104958988600280611284565b8960010361063b57831580156105475750600181600281111561052a5761052a611728565b14806105475750600281600281111561054557610545611728565b145b156105635761055e61040d368b90038b018b611650565b600193505b600061056f8a8a610dd6565b600281111561058057610580611728565b03610592576104958989600080611284565b600061059e8a8a610dd6565b60028111156105af576105af611728565b146105d8576105c661040d368b90038b018b611650565b610495610092368b90038b018b611650565b60006105e48a88610dd6565b60028111156105f5576105f5611728565b148015610600575083155b61049557610616610092368b90038b018b611650565b601e85108015610624575083155b156104955761049561040d368b90038b018b611650565b896002036106eb57600181600281111561065757610657611728565b14806106745750600281600281111561067257610672611728565b145b156106905761068b61040d368b90038b018b611650565b600193505b60008360028111156106a4576106a4611728565b036106b6576104958988600080611284565b60018360028111156106ca576106ca611728565b036106dd57610495898860026001611284565b6106eb898860036002611284565b6106fb60608a0160408b01611635565b63ffffffff1661012c101561071457610714898b61132c565b505050505050505050505050565b6040517f503a6982000000000000000000000000000000000000000000000000000000008152600481018290526000907f000000000000000000000000000000000000000000000000000000000000000073ffffffffffffffffffffffffffffffffffffffff169063503a698290602401602060405180830381865afa1580156107b0573d6000803e3d6000fd5b505050506040513d601f19601f820116820180604052508101906107d4919061170f565b9050600061012c846040015163ffffffff1610156107f457506012610814565b610226846040015163ffffffff16101561081057506008610814565b5060045b835161082790829063ffffffff166117b5565b82116108e5576040517f361401f4000000000000000000000000000000000000000000000000000000008152600481018490527f000000000000000000000000000000000000000000000000000000000000000073ffffffffffffffffffffffffffffffffffffffff169063361401f4906024015b6020604051808303816000875af11580156108bb573d6000803e3d6000fd5b505050506040513d601f19601f820116820180604052508101906108df919061170f565b50610099565b83516108f890829063ffffffff166117b5565b73ffffffffffffffffffffffffffffffffffffffff7f00000000000000000000000000000000000000000000000000000000000000001663503a698261093f6002876117b5565b6040518263ffffffff1660e01b815260040161095d91815260200190565b602060405180830381865afa15801561097a573d6000803e3d6000fd5b505050506040513d601f19601f8201168201806040525081019061099e919061170f565b11610a085773ffffffffffffffffffffffffffffffffffffffff7f00000000000000000000000000000000000000000000000000000000000000001663361401f46109ea6002866117b5565b6040518263ffffffff1660e01b815260040161089c91815260200190565b83516040517f503a69820000000000000000000000000000000000000000000000000000000081526002600482015263ffffffff909116907f000000000000000000000000000000000000000000000000000000000000000073ffffffffffffffffffffffffffffffffffffffff169063503a698290602401602060405180830381865afa158015610a9e573d6000803e3d6000fd5b505050506040513d601f19601f82011682018060405250810190610ac2919061170f565b11610b3a576040517f361401f4000000000000000000000000000000000000000000000000000000008152600260048201527f000000000000000000000000000000000000000000000000000000000000000073ffffffffffffffffffffffffffffffffffffffff169063361401f49060240161089c565b83516040517f503a69820000000000000000000000000000000000000000000000000000000081526001600482015263ffffffff909116907f000000000000000000000000000000000000000000000000000000000000000073ffffffffffffffffffffffffffffffffffffffff169063503a698290602401602060405180830381865afa158015610bd0573d6000803e3d6000fd5b505050506040513d601f19601f82011682018060405250810190610bf4919061170f565b11610099576040517f361401f4000000000000000000000000000000000000000000000000000000008152600160048201527f000000000000000000000000000000000000000000000000000000000000000073ffffffffffffffffffffffffffffffffffffffff169063361401f4906024016020604051808303816000875af1158015610c86573d6000803e3d6000fd5b505050506040513d601f19601f82011682018060405250810190610caa919061170f565b5050505050565b60006064846000015185602001518660400151866000016020810190610cd79190611635565b610ce76040890160208a01611635565b610cf760608a0160408b01611635565b610d0460208a018a611635565b610d1460408b0160208c01611635565b610d2460608c0160408d01611635565b604080517fffffffff0000000000000000000000000000000000000000000000000000000060e09b8c1b81166020830152998b1b8a166024820152978a1b8916602889015295891b8816602c88015293881b8716603087015291871b86166034860152861b85166038850152851b8416603c84015290931b909116918101919091526044016040516020818303038152906040528051906020012060001c610dcc91906117c9565b90505b9392505050565b600036610de96060840160408501611635565b63ffffffff16610dff6060860160408701611635565b63ffffffff1610610e105783610e12565b825b905036610e256060850160408601611635565b63ffffffff16610e3b6060870160408801611635565b63ffffffff1610610e4c5783610e4e565b845b9050600f610e626060830160408401611635565b610e726060850160408601611635565b610e7c91906117dd565b63ffffffff161015610e9357600092505050610edd565b6023610ea56060830160408401611635565b610eb56060850160408601611635565b610ebf91906117dd565b63ffffffff161015610ed657600192505050610edd565b6002925050505b92915050565b600036610ef66040840160208501611635565b63ffffffff16610f0c6040860160208701611635565b63ffffffff1610610f1d5783610f1f565b825b905036610f326040850160208601611635565b63ffffffff16610f486040870160208801611635565b63ffffffff1610610f595783610f5b565b845b90506001610f6f6040830160208401611635565b610f7f6040850160208601611635565b610f8991906117dd565b63ffffffff1611610f9f57600092505050610edd565b6004610fb16040830160208401611635565b610fc16040850160208601611635565b610fcb91906117dd565b63ffffffff1611610ed657600192505050610edd565b6000806002610ff36020850185611635565b6110006020870187611635565b61100a9190611802565b611014919061182a565b63ffffffff169050600a61102b6020850185611635565b6110386020870187611635565b6110429190611802565b61104d90600f61184d565b611057919061182a565b63ffffffff1661106a6020870187611635565b63ffffffff161115611080576002915050610dcf565b606461108d826057611879565b61109791906117b5565b6110a46020870187611635565b63ffffffff16116110b9576000915050610dcf565b6001915050610dcf565b6040517f54192e41000000000000000000000000000000000000000000000000000000008152600160048201526000907f000000000000000000000000000000000000000000000000000000000000000073ffffffffffffffffffffffffffffffffffffffff16906354192e4190602401602060405180830381865afa158015611151573d6000803e3d6000fd5b505050506040513d601f19601f82011682018060405250810190611175919061170f565b9050600061012c836040015163ffffffff161015611195575060196111b5565b610226836040015163ffffffff1610156111b1575060086111b5565b5060045b82516111c890829063ffffffff166117b5565b821161127f576040517f4e7444c4000000000000000000000000000000000000000000000000000000008152600160048201527f000000000000000000000000000000000000000000000000000000000000000073ffffffffffffffffffffffffffffffffffffffff1690634e7444c4906024016020604051808303816000875af115801561125b573d6000803e3d6000fd5b505050506040513d601f19601f82011682018060405250810190610099919061170f565b505050565b60006112966040850160208601611635565b63ffffffff166112ac6040870160208801611635565b63ffffffff16119050600081611302576112cc6040870160208801611635565b63ffffffff16846112e36040880160208901611635565b63ffffffff166112f391906118b6565b6112fd91906118ce565b611304565b825b905080156113245761132461131e36889003880188611650565b82610722565b505050505050565b600e6000816113416060860160408701611635565b63ffffffff166113519190611879565b61135d90613a986118ce565b6040517f503a69820000000000000000000000000000000000000000000000000000000081526001600482015290915060009073ffffffffffffffffffffffffffffffffffffffff7f0000000000000000000000000000000000000000000000000000000000000000169063503a698290602401602060405180830381865afa1580156113ee573d6000803e3d6000fd5b505050506040513d601f19601f82011682018060405250810190611412919061170f565b6040517f54192e410000000000000000000000000000000000000000000000000000000081526001600482015290915060009073ffffffffffffffffffffffffffffffffffffffff7f000000000000000000000000000000000000000000000000000000000000000016906354192e4190602401602060405180830381865afa1580156114a3573d6000803e3d6000fd5b505050506040513d601f19601f820116820180604052508101906114c7919061170f565b905060008183106114d95760006114dc565b60015b90506114eb6020880188611635565b63ffffffff16841015611569578483108015611505575085155b156115215761151c61009236899003890189611650565b611569565b848310801561152d5750805b156115445761151c61009236899003890189611650565b848210801561155257508515155b156115695761156961040d36899003890189611650565b50505050505050565b60008060006040848603121561158757600080fd5b833567ffffffffffffffff8082111561159f57600080fd5b818601915086601f8301126115b357600080fd5b8135818111156115c257600080fd5b8760208260071b85010111156115d757600080fd5b6020928301989097509590910135949350505050565b7f4e487b7100000000000000000000000000000000000000000000000000000000600052603260045260246000fd5b803563ffffffff8116811461163057600080fd5b919050565b60006020828403121561164757600080fd5b610dcf8261161c565b60006080828403121561166257600080fd5b6040516080810181811067ffffffffffffffff821117156116ac577f4e487b7100000000000000000000000000000000000000000000000000000000600052604160045260246000fd5b6040526116b88361161c565b81526116c66020840161161c565b60208201526116d76040840161161c565b6040820152606083013573ffffffffffffffffffffffffffffffffffffffff8116811461170357600080fd5b60608201529392505050565b60006020828403121561172157600080fd5b5051919050565b7f4e487b7100000000000000000000000000000000000000000000000000000000600052602160045260246000fd5b7f4e487b7100000000000000000000000000000000000000000000000000000000600052601260045260246000fd5b7f4e487b7100000000000000000000000000000000000000000000000000000000600052601160045260246000fd5b6000826117c4576117c4611757565b500490565b6000826117d8576117d8611757565b500690565b600063ffffffff838116908316818110156117fa576117fa611786565b039392505050565b600063ffffffff80831681851680830382111561182157611821611786565b01949350505050565b600063ffffffff8084168061184157611841611757565b92169190910492915050565b600063ffffffff8083168185168183048111821515161561187057611870611786565b02949350505050565b6000817fffffffffffffffffffffffffffffffffffffffffffffffffffffffffffffffff04831182151516156118b1576118b1611786565b500290565b600082198211156118c9576118c9611786565b500190565b6000828210156118e0576118e0611786565b50039056fea164736f6c634300080d000a",
    "linkReferences": {}
  },
  "methodIdentifiers": {
    "takeYourTurn((uint32,uint32,uint32,address)[],uint256)": "0c73edf4"
  },
  "id": 12
}