{
  "abi": [
    {
      "inputs": [
        {
          "internalType": "contract Monaco",
          "name": "_monaco",
          "type": "address"
        }
      ],
      "stateMutability": "nonpayable",
      "type": "constructor"
    },
    {
      "inputs": [
        {
          "components": [
            {
              "internalType": "uint32",
              "name": "balance",
              "type": "uint32"
            },
            {
              "internalType": "uint32",
              "name": "speed",
              "type": "uint32"
            },
            {
              "internalType": "uint32",
              "name": "y",
              "type": "uint32"
            },
            {
              "internalType": "contract Car",
              "name": "car",
              "type": "address"
            }
          ],
          "internalType": "struct Monaco.CarData[]",
          "name": "allCars",
          "type": "tuple[]"
        },
        {
          "internalType": "uint256",
          "name": "ourCarIndex",
          "type": "uint256"
        }
      ],
      "name": "takeYourTurn",
      "outputs": [],
      "stateMutability": "nonpayable",
      "type": "function"
    }
  ],
  "bytecode": {
    "object": "0x60a060405234801561001057600080fd5b50604051611c8c380380611c8c83398101604081905261002f91610040565b6001600160a01b0316608052610070565b60006020828403121561005257600080fd5b81516001600160a01b038116811461006957600080fd5b9392505050565b608051611b67610125600039600081816101860152818161023b0152818161036a0152818161049401528181610566015281816106e0015281816107a5015281816108ed0152818161098901528181610ac301528181610b7a01528181610c6901528181610d3601528181610ded01528181610ea401528181610fca0152818161110a01528181611231015281816112e80152818161139b0152818161147e01528181611558015261163b0152611b676000f3fe608060405234801561001057600080fd5b506004361061002b5760003560e01c80630c73edf414610030575b600080fd5b61004361003e366004611864565b610045565b005b6000838383818110610059576100596118df565b90506080020180360381019061006f9190611927565b90506000808360000361008857506001905060026100a4565b8360010361009c57506000905060026100a4565b506000905060015b600080610bb8856000015163ffffffff161080156100f957508787858181106100cf576100cf6118df565b6100e592602060809092020190810191506119e6565b63ffffffff16856000015163ffffffff1611155b801561013c5750878784818110610112576101126118df565b61012892602060809092020190810191506119e6565b63ffffffff16856000015163ffffffff1611155b6040517f54192e410000000000000000000000000000000000000000000000000000000081526001600482015290915060009073ffffffffffffffffffffffffffffffffffffffff7f000000000000000000000000000000000000000000000000000000000000000016906354192e4190602401602060405180830381865afa1580156101cd573d6000803e3d6000fd5b505050506040513d601f19601f820116820180604052508101906101f19190611a08565b6040517f503a69820000000000000000000000000000000000000000000000000000000081526001600482015290915060009073ffffffffffffffffffffffffffffffffffffffff7f0000000000000000000000000000000000000000000000000000000000000000169063503a698290602401602060405180830381865afa158015610282573d6000803e3d6000fd5b505050506040513d601f19601f820116820180604052508101906102a69190611a08565b90508989878181106102ba576102ba6118df565b90506080020160200160208101906102d291906119e6565b63ffffffff16876020015163ffffffff1611801561032857508989868181106102fd576102fd6118df565b905060800201602001602081019061031591906119e6565b63ffffffff16876020015163ffffffff16115b156103fa57865163ffffffff1681116103ee576040517f361401f4000000000000000000000000000000000000000000000000000000008152600160048201527f000000000000000000000000000000000000000000000000000000000000000073ffffffffffffffffffffffffffffffffffffffff169063361401f4906024016020604051808303816000875af11580156103c8573d6000803e3d6000fd5b505050506040513d601f19601f820116820180604052508101906103ec9190611a08565b505b50505050505050505050565b60008a8a8781811061040e5761040e6118df565b61042492602060809092020190810191506119e6565b8b8b89818110610436576104366118df565b61044c92602060809092020190810191506119e6565b6104569190611a50565b610461906002611a78565b63ffffffff16886000015163ffffffff16101590508080156105325750875161048c90600290611ad3565b63ffffffff167f000000000000000000000000000000000000000000000000000000000000000073ffffffffffffffffffffffffffffffffffffffff1663503a698260056040518263ffffffff1660e01b81526004016104ee91815260200190565b602060405180830381865afa15801561050b573d6000803e3d6000fd5b505050506040513d601f19601f8201168201806040525081019061052f9190611a08565b11155b156105f6576040517f361401f4000000000000000000000000000000000000000000000000000000008152600560048201527f000000000000000000000000000000000000000000000000000000000000000073ffffffffffffffffffffffffffffffffffffffff169063361401f4906024016020604051808303816000875af11580156105c4573d6000803e3d6000fd5b505050506040513d601f19601f820116820180604052508101906105e89190611a08565b505050505050505050505050565b881580159061064757508a8a61060d60018c611af6565b81811061061c5761061c6118df565b905060800201602001602081019061063491906119e6565b63ffffffff16886020015163ffffffff16105b15610829576040880151601e908c8c61066160018e611af6565b818110610670576106706118df565b905060800201604001602081019061068891906119e6565b6106929190611b0d565b63ffffffff161180156106ac5750875163ffffffff168311155b15610768576040517f4e7444c4000000000000000000000000000000000000000000000000000000008152600160048201527f000000000000000000000000000000000000000000000000000000000000000073ffffffffffffffffffffffffffffffffffffffff1690634e7444c4906024016020604051808303816000875af115801561073e573d6000803e3d6000fd5b505050506040513d601f19601f820116820180604052508101906107629190611a08565b50600194505b875163ffffffff168211610829576040517f361401f4000000000000000000000000000000000000000000000000000000008152600260048201527f000000000000000000000000000000000000000000000000000000000000000073ffffffffffffffffffffffffffffffffffffffff169063361401f4906024016020604051808303816000875af1158015610803573d6000803e3d6000fd5b505050506040513d601f19601f820116820180604052508101906108279190611a08565b505b6102bc886040015163ffffffff16118061087357506102bc8b8b89818110610853576108536118df565b905060800201604001602081019061086b91906119e6565b63ffffffff16115b806108ae57506102bc8b8b8881811061088e5761088e6118df565b90506080020160400160208101906108a691906119e6565b63ffffffff16115b15610a1d5787516040517f503a69820000000000000000000000000000000000000000000000000000000081526005600482015263ffffffff909116907f000000000000000000000000000000000000000000000000000000000000000073ffffffffffffffffffffffffffffffffffffffff169063503a698290602401602060405180830381865afa158015610949573d6000803e3d6000fd5b505050506040513d601f19601f8201168201806040525081019061096d9190611a08565b11610a1d5773ffffffffffffffffffffffffffffffffffffffff7f00000000000000000000000000000000000000000000000000000000000000001663361401f46109ba60026005611b32565b6040518263ffffffff1660e01b81526004016109d891815260200190565b6020604051808303816000875af11580156109f7573d6000803e3d6000fd5b505050506040513d601f19601f82011682018060405250810190610a1b9190611a08565b505b6000610a5a898d8d8b818110610a3557610a356118df565b9050608002018e8e8b818110610a4d57610a4d6118df565b9050608002016064611741565b9050806032108015610a6a575084155b15610cf3576000610a7c600583611b46565b9050806000108015610b46575089516040517f503a69820000000000000000000000000000000000000000000000000000000081526004810183905263ffffffff909116907f000000000000000000000000000000000000000000000000000000000000000073ffffffffffffffffffffffffffffffffffffffff169063503a698290602401602060405180830381865afa158015610b1f573d6000803e3d6000fd5b505050506040513d601f19601f82011682018060405250810190610b439190611a08565b11155b15610bfe576040517f361401f4000000000000000000000000000000000000000000000000000000008152600481018290527f000000000000000000000000000000000000000000000000000000000000000073ffffffffffffffffffffffffffffffffffffffff169063361401f4906024016020604051808303816000875af1158015610bd8573d6000803e3d6000fd5b505050506040513d601f19601f82011682018060405250810190610bfc9190611a08565b505b8a15801590610c0b575086155b8015610c1e5750895163ffffffff168511155b8015610c3557506001610c32600384611b46565b11155b15610ced576040517f4e7444c4000000000000000000000000000000000000000000000000000000008152600160048201527f000000000000000000000000000000000000000000000000000000000000000073ffffffffffffffffffffffffffffffffffffffff1690634e7444c4906024016020604051808303816000875af1158015610cc7573d6000803e3d6000fd5b505050506040513d601f19601f82011682018060405250810190610ceb9190611a08565b505b5061118e565b89158015610db9575088516040517f503a69820000000000000000000000000000000000000000000000000000000081526002600482015263ffffffff909116907f000000000000000000000000000000000000000000000000000000000000000073ffffffffffffffffffffffffffffffffffffffff169063503a698290602401602060405180830381865afa158015610d92573d6000803e3d6000fd5b505050506040513d601f19601f82011682018060405250810190610db69190611a08565b11155b15610e75576040517f361401f4000000000000000000000000000000000000000000000000000000008152600260048201527f000000000000000000000000000000000000000000000000000000000000000073ffffffffffffffffffffffffffffffffffffffff169063361401f4906024016020604051808303816000875af1158015610e4b573d6000803e3d6000fd5b505050506040513d601f19601f82011682018060405250810190610e6f9190611a08565b50610f28565b6040517f361401f4000000000000000000000000000000000000000000000000000000008152600160048201527f000000000000000000000000000000000000000000000000000000000000000073ffffffffffffffffffffffffffffffffffffffff169063361401f4906024016020604051808303816000875af1158015610f02573d6000803e3d6000fd5b505050506040513d601f19601f82011682018060405250810190610f269190611a08565b505b8915801590610f35575085155b8015610f835750602089015163ffffffff168c8c610f5460018e611af6565b818110610f6357610f636118df565b9050608002016020016020810190610f7b91906119e6565b63ffffffff16115b8015610f965750885163ffffffff168411155b1561104e576040517f4e7444c4000000000000000000000000000000000000000000000000000000008152600160048201527f000000000000000000000000000000000000000000000000000000000000000073ffffffffffffffffffffffffffffffffffffffff1690634e7444c4906024016020604051808303816000875af1158015611028573d6000803e3d6000fd5b505050506040513d601f19601f8201168201806040525081019061104c9190611a08565b505b8b8b89818110611060576110606118df565b61107692602060809092020190810191506119e6565b63ffffffff1660c88a6000015161108d9190611b0d565b63ffffffff161180156110d657508b8b888181106110ad576110ad6118df565b6110c392602060809092020190810191506119e6565b63ffffffff16896000015163ffffffff16115b1561118e576040517f361401f4000000000000000000000000000000000000000000000000000000008152600260048201527f000000000000000000000000000000000000000000000000000000000000000073ffffffffffffffffffffffffffffffffffffffff169063361401f4906024016020604051808303816000875af1158015611168573d6000803e3d6000fd5b505050506040513d601f19601f8201168201806040525081019061118c9190611a08565b505b886020015163ffffffff1660000361172f576000600a8d8d60018181106111b7576111b76118df565b90506080020160200160208101906111cf91906119e6565b6111da90600f611a78565b6111e49190611ad3565b63ffffffff1690508a60021480156112b4575089516040517f503a69820000000000000000000000000000000000000000000000000000000081526004810183905263ffffffff909116907f000000000000000000000000000000000000000000000000000000000000000073ffffffffffffffffffffffffffffffffffffffff169063503a698290602401602060405180830381865afa15801561128d573d6000803e3d6000fd5b505050506040513d601f19601f820116820180604052508101906112b19190611a08565b11155b15611371576040517f361401f4000000000000000000000000000000000000000000000000000000008152600481018290527f000000000000000000000000000000000000000000000000000000000000000073ffffffffffffffffffffffffffffffffffffffff169063361401f4906024015b6020604051808303816000875af1158015611347573d6000803e3d6000fd5b505050506040513d601f19601f8201168201806040525081019061136b9190611a08565b5061172d565b8a60011480156114775750895163ffffffff1673ffffffffffffffffffffffffffffffffffffffff7f00000000000000000000000000000000000000000000000000000000000000001663503a69828f8f60028181106113d3576113d36118df565b90506080020160200160208101906113eb91906119e6565b6113f6906001611a50565b6040517fffffffff0000000000000000000000000000000000000000000000000000000060e084901b16815263ffffffff919091166004820152602401602060405180830381865afa158015611450573d6000803e3d6000fd5b505050506040513d601f19601f820116820180604052508101906114749190611a08565b11155b15611530577f000000000000000000000000000000000000000000000000000000000000000073ffffffffffffffffffffffffffffffffffffffff1663361401f48e8e60028181106114cb576114cb6118df565b90506080020160200160208101906114e391906119e6565b6114ee906001611a50565b6040517fffffffff0000000000000000000000000000000000000000000000000000000060e084901b16815263ffffffff919091166004820152602401611328565b8a1580156116345750895163ffffffff1673ffffffffffffffffffffffffffffffffffffffff7f00000000000000000000000000000000000000000000000000000000000000001663503a69828f8f6001818110611590576115906118df565b90506080020160200160208101906115a891906119e6565b6115b3906001611a50565b6040517fffffffff0000000000000000000000000000000000000000000000000000000060e084901b16815263ffffffff919091166004820152602401602060405180830381865afa15801561160d573d6000803e3d6000fd5b505050506040513d601f19601f820116820180604052508101906116319190611a08565b11155b1561172d577f000000000000000000000000000000000000000000000000000000000000000073ffffffffffffffffffffffffffffffffffffffff1663361401f48e8e6001818110611688576116886118df565b90506080020160200160208101906116a091906119e6565b6116ab906001611a50565b6040517fffffffff0000000000000000000000000000000000000000000000000000000060e084901b16815263ffffffff9190911660048201526024016020604051808303816000875af1158015611707573d6000803e3d6000fd5b505050506040513d601f19601f8201168201806040525081019061172b9190611a08565b505b505b50506000556001555050505050505050565b60008185600001518660200151876040015187600001602081019061176691906119e6565b61177660408a0160208b016119e6565b61178660608b0160408c016119e6565b61179360208b018b6119e6565b6117a360408c0160208d016119e6565b6117b360608d0160408e016119e6565b604080517fffffffff0000000000000000000000000000000000000000000000000000000060e09b8c1b81166020830152998b1b8a166024820152978a1b8916602889015295891b8816602c88015293881b8716603087015291871b86166034860152861b85166038850152851b8416603c84015290931b909116918101919091526044016040516020818303038152906040528051906020012060001c61185b9190611b46565b95945050505050565b60008060006040848603121561187957600080fd5b833567ffffffffffffffff8082111561189157600080fd5b818601915086601f8301126118a557600080fd5b8135818111156118b457600080fd5b8760208260071b85010111156118c957600080fd5b6020928301989097509590910135949350505050565b7f4e487b7100000000000000000000000000000000000000000000000000000000600052603260045260246000fd5b803563ffffffff8116811461192257600080fd5b919050565b60006080828403121561193957600080fd5b6040516080810181811067ffffffffffffffff82111715611983577f4e487b7100000000000000000000000000000000000000000000000000000000600052604160045260246000fd5b60405261198f8361190e565b815261199d6020840161190e565b60208201526119ae6040840161190e565b6040820152606083013573ffffffffffffffffffffffffffffffffffffffff811681146119da57600080fd5b60608201529392505050565b6000602082840312156119f857600080fd5b611a018261190e565b9392505050565b600060208284031215611a1a57600080fd5b5051919050565b7f4e487b7100000000000000000000000000000000000000000000000000000000600052601160045260246000fd5b600063ffffffff808316818516808303821115611a6f57611a6f611a21565b01949350505050565b600063ffffffff80831681851681830481118215151615611a9b57611a9b611a21565b02949350505050565b7f4e487b7100000000000000000000000000000000000000000000000000000000600052601260045260246000fd5b600063ffffffff80841680611aea57611aea611aa4565b92169190910492915050565b600082821015611b0857611b08611a21565b500390565b600063ffffffff83811690831681811015611b2a57611b2a611a21565b039392505050565b600082611b4157611b41611aa4565b500490565b600082611b5557611b55611aa4565b50069056fea164736f6c634300080d000a",
    "linkReferences": {}
  },
  "methodIdentifiers": {
    "takeYourTurn((uint32,uint32,uint32,address)[],uint256)": "0c73edf4"
  },
  "id": 10
}