{
  "abi": [
    {
      "anonymous": false,
      "inputs": [
        {
          "indexed": true,
          "internalType": "uint256",
          "name": "turn",
          "type": "uint256"
        },
        {
          "indexed": true,
          "internalType": "contract Car",
          "name": "car",
          "type": "address"
        },
        {
          "indexed": false,
          "internalType": "uint256",
          "name": "amount",
          "type": "uint256"
        },
        {
          "indexed": false,
          "internalType": "uint256",
          "name": "cost",
          "type": "uint256"
        }
      ],
      "name": "Accelerated",
      "type": "event"
    },
    {
      "anonymous": false,
      "inputs": [
        {
          "indexed": true,
          "internalType": "uint256",
          "name": "turn",
          "type": "uint256"
        },
        {
          "indexed": true,
          "internalType": "contract Car",
          "name": "winner",
          "type": "address"
        }
      ],
      "name": "Dub",
      "type": "event"
    },
    {
      "anonymous": false,
      "inputs": [
        {
          "indexed": true,
          "internalType": "uint256",
          "name": "turn",
          "type": "uint256"
        },
        {
          "indexed": true,
          "internalType": "contract Car",
          "name": "car",
          "type": "address"
        }
      ],
      "name": "Punished",
      "type": "event"
    },
    {
      "anonymous": false,
      "inputs": [
        {
          "indexed": true,
          "internalType": "uint256",
          "name": "turn",
          "type": "uint256"
        },
        {
          "indexed": true,
          "internalType": "contract Car",
          "name": "car",
          "type": "address"
        }
      ],
      "name": "Registered",
      "type": "event"
    },
    {
      "anonymous": false,
      "inputs": [
        {
          "indexed": true,
          "internalType": "uint256",
          "name": "turn",
          "type": "uint256"
        },
        {
          "indexed": true,
          "internalType": "contract Car",
          "name": "car",
          "type": "address"
        }
      ],
      "name": "Rewarded",
      "type": "event"
    },
    {
      "anonymous": false,
      "inputs": [
        {
          "indexed": true,
          "internalType": "uint256",
          "name": "turn",
          "type": "uint256"
        },
        {
          "indexed": true,
          "internalType": "contract Car",
          "name": "smoker",
          "type": "address"
        },
        {
          "indexed": true,
          "internalType": "contract Car",
          "name": "smoked",
          "type": "address"
        },
        {
          "indexed": false,
          "internalType": "uint256",
          "name": "amount",
          "type": "uint256"
        },
        {
          "indexed": false,
          "internalType": "uint256",
          "name": "cost",
          "type": "uint256"
        }
      ],
      "name": "Shelled",
      "type": "event"
    },
    {
      "anonymous": false,
      "inputs": [
        {
          "indexed": true,
          "internalType": "uint256",
          "name": "turn",
          "type": "uint256"
        },
        {
          "components": [
            {
              "internalType": "uint32",
              "name": "balance",
              "type": "uint32"
            },
            {
              "internalType": "uint32",
              "name": "speed",
              "type": "uint32"
            },
            {
              "internalType": "uint32",
              "name": "y",
              "type": "uint32"
            },
            {
              "internalType": "contract Car",
              "name": "car",
              "type": "address"
            }
          ],
          "indexed": false,
          "internalType": "struct Monaco.CarData[]",
          "name": "cars",
          "type": "tuple[]"
        },
        {
          "indexed": false,
          "internalType": "uint256",
          "name": "acceleratePrice",
          "type": "uint256"
        },
        {
          "indexed": false,
          "internalType": "uint256",
          "name": "shellPrice",
          "type": "uint256"
        }
      ],
      "name": "TurnCompleted",
      "type": "event"
    },
    {
      "inputs": [
        {
          "internalType": "uint256",
          "name": "amount",
          "type": "uint256"
        }
      ],
      "name": "buyAcceleration",
      "outputs": [
        {
          "internalType": "uint256",
          "name": "cost",
          "type": "uint256"
        }
      ],
      "stateMutability": "nonpayable",
      "type": "function"
    },
    {
      "inputs": [
        {
          "internalType": "uint256",
          "name": "amount",
          "type": "uint256"
        }
      ],
      "name": "buyShell",
      "outputs": [
        {
          "internalType": "uint256",
          "name": "cost",
          "type": "uint256"
        }
      ],
      "stateMutability": "nonpayable",
      "type": "function"
    },
    {
      "inputs": [
        {
          "internalType": "uint256",
          "name": "",
          "type": "uint256"
        }
      ],
      "name": "cars",
      "outputs": [
        {
          "internalType": "contract Car",
          "name": "",
          "type": "address"
        }
      ],
      "stateMutability": "view",
      "type": "function"
    },
    {
      "inputs": [],
      "name": "currentCar",
      "outputs": [
        {
          "internalType": "contract Car",
          "name": "",
          "type": "address"
        }
      ],
      "stateMutability": "view",
      "type": "function"
    },
    {
      "inputs": [],
      "name": "entropy",
      "outputs": [
        {
          "internalType": "uint72",
          "name": "",
          "type": "uint72"
        }
      ],
      "stateMutability": "view",
      "type": "function"
    },
    {
      "inputs": [
        {
          "internalType": "uint256",
          "name": "amount",
          "type": "uint256"
        }
      ],
      "name": "getAccelerateCost",
      "outputs": [
        {
          "internalType": "uint256",
          "name": "sum",
          "type": "uint256"
        }
      ],
      "stateMutability": "view",
      "type": "function"
    },
    {
      "inputs": [
        {
          "internalType": "enum Monaco.ActionType",
          "name": "",
          "type": "uint8"
        }
      ],
      "name": "getActionsSold",
      "outputs": [
        {
          "internalType": "uint256",
          "name": "",
          "type": "uint256"
        }
      ],
      "stateMutability": "view",
      "type": "function"
    },
    {
      "inputs": [],
      "name": "getAllCarData",
      "outputs": [
        {
          "components": [
            {
              "internalType": "uint32",
              "name": "balance",
              "type": "uint32"
            },
            {
              "internalType": "uint32",
              "name": "speed",
              "type": "uint32"
            },
            {
              "internalType": "uint32",
              "name": "y",
              "type": "uint32"
            },
            {
              "internalType": "contract Car",
              "name": "car",
              "type": "address"
            }
          ],
          "internalType": "struct Monaco.CarData[]",
          "name": "results",
          "type": "tuple[]"
        }
      ],
      "stateMutability": "view",
      "type": "function"
    },
    {
      "inputs": [
        {
          "internalType": "contract Car",
          "name": "carToFind",
          "type": "address"
        }
      ],
      "name": "getAllCarDataAndFindCar",
      "outputs": [
        {
          "components": [
            {
              "internalType": "uint32",
              "name": "balance",
              "type": "uint32"
            },
            {
              "internalType": "uint32",
              "name": "speed",
              "type": "uint32"
            },
            {
              "internalType": "uint32",
              "name": "y",
              "type": "uint32"
            },
            {
              "internalType": "contract Car",
              "name": "car",
              "type": "address"
            }
          ],
          "internalType": "struct Monaco.CarData[]",
          "name": "results",
          "type": "tuple[]"
        },
        {
          "internalType": "uint256",
          "name": "foundCarIndex",
          "type": "uint256"
        }
      ],
      "stateMutability": "view",
      "type": "function"
    },
    {
      "inputs": [
        {
          "internalType": "contract Car",
          "name": "",
          "type": "address"
        }
      ],
      "name": "getCarData",
      "outputs": [
        {
          "internalType": "uint32",
          "name": "balance",
          "type": "uint32"
        },
        {
          "internalType": "uint32",
          "name": "speed",
          "type": "uint32"
        },
        {
          "internalType": "uint32",
          "name": "y",
          "type": "uint32"
        },
        {
          "internalType": "contract Car",
          "name": "car",
          "type": "address"
        }
      ],
      "stateMutability": "view",
      "type": "function"
    },
    {
      "inputs": [
        {
          "internalType": "uint256",
          "name": "amount",
          "type": "uint256"
        }
      ],
      "name": "getShellCost",
      "outputs": [
        {
          "internalType": "uint256",
          "name": "sum",
          "type": "uint256"
        }
      ],
      "stateMutability": "view",
      "type": "function"
    },
    {
      "inputs": [
        {
          "internalType": "uint256",
          "name": "turnsToPlay",
          "type": "uint256"
        }
      ],
      "name": "play",
      "outputs": [],
      "stateMutability": "nonpayable",
      "type": "function"
    },
    {
      "inputs": [
        {
          "internalType": "contract Car",
          "name": "car",
          "type": "address"
        }
      ],
      "name": "register",
      "outputs": [],
      "stateMutability": "nonpayable",
      "type": "function"
    },
    {
      "inputs": [],
      "name": "state",
      "outputs": [
        {
          "internalType": "enum Monaco.State",
          "name": "",
          "type": "uint8"
        }
      ],
      "stateMutability": "view",
      "type": "function"
    },
    {
      "inputs": [],
      "name": "turns",
      "outputs": [
        {
          "internalType": "uint16",
          "name": "",
          "type": "uint16"
        }
      ],
      "stateMutability": "view",
      "type": "function"
    }
  ],
  "bytecode": {
    "object": "0x60806040526000805462ffff00191661010017905534801561002057600080fd5b506121e8806100306000396000f3fe608060405234801561001057600080fd5b50600436106100f55760003560e01c80634e7444c4116100975780639d18e79f116100665780639d18e79f1461026c578063c19d93fb14610317578063f7746e3614610331578063f9fa47ee1461034457600080fd5b80634e7444c414610220578063503a69821461023357806354192e41146102465780636898f82b1461025957600080fd5b806337c0d8d3116100d357806337c0d8d31461019a578063401c0347146101af5780634420e486146101d557806347ce07cc146101ea57600080fd5b80630d93582a146100fa57806329af11bf14610124578063361401f414610179575b600080fd5b61010d610108366004611f72565b610364565b60405161011b92919061202d565b60405180910390f35b600054610154906c01000000000000000000000000900473ffffffffffffffffffffffffffffffffffffffff1681565b60405173ffffffffffffffffffffffffffffffffffffffff909116815260200161011b565b61018c61018736600461204f565b6104ed565b60405190815260200161011b565b6101a2610719565b60405161011b9190612068565b6000546101c290610100900461ffff1681565b60405161ffff909116815260200161011b565b6101e86101e3366004611f72565b610867565b005b600054610206906301000000900468ffffffffffffffffff1681565b60405168ffffffffffffffffff909116815260200161011b565b61018c61022e36600461204f565b610b74565b61018c61024136600461204f565b610fb3565b61018c61025436600461204f565b611041565b6101e861026736600461204f565b6110ca565b6102d461027a366004611f72565b60036020526000908152604090205463ffffffff80821691640100000000810482169168010000000000000000820416906c01000000000000000000000000900473ffffffffffffffffffffffffffffffffffffffff1684565b6040805163ffffffff95861681529385166020850152919093169082015273ffffffffffffffffffffffffffffffffffffffff909116606082015260800161011b565b6000546103249060ff1681565b60405161011b91906120aa565b61015461033f36600461204f565b61166f565b61018c6103523660046120eb565b60016020526000908152604090205481565b6040805160038082526080820190925260609160009190816020015b6040805160808101825260008082526020808301829052928201819052606082015282527fffffffffffffffffffffffffffffffffffffffffffffffffffffffffffffffff90920191018161038057905050915060006103de6116a6565b905060005b60038110156104e65760008282815181106104005761040061210c565b602002602001015190508573ffffffffffffffffffffffffffffffffffffffff168173ffffffffffffffffffffffffffffffffffffffff1603610441578193505b73ffffffffffffffffffffffffffffffffffffffff8082166000908152600360209081526040918290208251608081018452905463ffffffff80821683526401000000008204811693830193909352680100000000000000008104909216928101929092526c010000000000000000000000009004909116606082015285518690849081106104d2576104d261210c565b6020908102919091010152506001016103e3565b5050915091565b6000600160005460ff1660028111156105085761050861207b565b14610574576040517f08c379a000000000000000000000000000000000000000000000000000000000815260206004820152600f60248201527f47414d455f4e4f545f414354495645000000000000000000000000000000000060448201526064015b60405180910390fd5b6000546c01000000000000000000000000900473ffffffffffffffffffffffffffffffffffffffff163314610605576040517f08c379a000000000000000000000000000000000000000000000000000000000815260206004820152600f60248201527f4e4f545f43555252454e545f4341520000000000000000000000000000000000604482015260640161056b565b61060e82610fb3565b336000908152600360205260409020909150610629826118e5565b8154829060009061064190849063ffffffff1661213b565b82546101009290920a63ffffffff81810219909316918316021790915582547fffffffffffffffffffffffffffffffffffffffffffffffff00000000ffffffff81166401000000009182900483168701909216021782555082600160008060018111156106b0576106b061207b565b81526020808201929092526040908101600090812080549490940190935591548251868152918201859052339261010090910461ffff16917ff7b74f6ee5bd099d62edcf9cbfcc1e3948b3073fc223e723d23c669f6360ed13910160405180910390a350919050565b60408051600380825260808201909252606091816020015b6040805160808101825260008082526020808301829052928201819052606082015282527fffffffffffffffffffffffffffffffffffffffffffffffffffffffffffffffff909201910181610731579050509050600061078f6116a6565b905060005b600381101561086257600360008383815181106107b3576107b361210c565b60209081029190910181015173ffffffffffffffffffffffffffffffffffffffff90811683528282019390935260409182016000208251608081018452905463ffffffff80821683526401000000008204811693830193909352680100000000000000008104909216928101929092526c0100000000000000000000000090049091166060820152835184908390811061084f5761084f61210c565b6020908102919091010152600101610794565b505090565b73ffffffffffffffffffffffffffffffffffffffff8181166000908152600360205260409020546c0100000000000000000000000090041615610906576040517f08c379a000000000000000000000000000000000000000000000000000000000815260206004820152600f60248201527f444f55424c455f52454749535445520000000000000000000000000000000000604482015260640161056b565b60408051608081018252613a9881526000602080830182815283850183815273ffffffffffffffffffffffffffffffffffffffff808816606087018181528187526003909552968520955186549351925194519091166c01000000000000000000000000026bffffffffffffffffffffffff63ffffffff95861668010000000000000000021667ffffffffffffffff938616640100000000027fffffffffffffffffffffffffffffffffffffffffffffffff000000000000000090951692909516919091179290921716919091171790915560028054600181018255918190527f405787fa12a823e0f2b7631cc41b3ba8828b3321ca811111fa75cd3aa3bb5ace90910180547fffffffffffffffffffffffff000000000000000000000000000000000000000016909217909155547ffffffffffffffffffffffffffffffffffffffffffffffffffffffffffffffffd8101610ac357600080547fffffffffffffffffffffffffffffffffffffffffffffffffffffffffffffff0068ffffffffffffffffff4216630100000002167fffffffffffffffffffffffffffffffffffffffff000000000000000000ffff00909116176001179055610b2d565b60038110610b2d576040517f08c379a000000000000000000000000000000000000000000000000000000000815260206004820152600b60248201527f4d41585f504c4159455253000000000000000000000000000000000000000000604482015260640161056b565b60405173ffffffffffffffffffffffffffffffffffffffff8316906000907f6cd8594df6446610564bf1ea1e804402ea0006dc7b541d3a430d1ea0a62cffd4908290a35050565b6000600160005460ff166002811115610b8f57610b8f61207b565b14610bf6576040517f08c379a000000000000000000000000000000000000000000000000000000000815260206004820152600f60248201527f47414d455f4e4f545f4143544956450000000000000000000000000000000000604482015260640161056b565b6000546c01000000000000000000000000900473ffffffffffffffffffffffffffffffffffffffff163314610c87576040517f08c379a000000000000000000000000000000000000000000000000000000000815260206004820152600f60248201527f4e4f545f43555252454e545f4341520000000000000000000000000000000000604482015260640161056b565b81600003610cf1576040517f08c379a000000000000000000000000000000000000000000000000000000000815260206004820152601860248201527f594f555f43414e545f4255595f5a45524f5f5348454c4c530000000000000000604482015260640161056b565b610cfa82611041565b336000908152600360205260409020909150610d15826118e5565b81548290600090610d2d90849063ffffffff1661213b565b82546101009290920a63ffffffff8181021990931691831602179091558254600160008181526020919091527fcc69885fda6bcc1a4ace058b4a62bf5e179ea78fd58a1ccd71c22cc9b688792f8054880190556801000000000000000090910490911691507fffffffffffffffffffffffffffffffffffffffffffffffffffffffffffffffff815b6003811015610e9c5760006003600060028481548110610dd757610dd761210c565b600091825260208083209091015473ffffffffffffffffffffffffffffffffffffffff90811684528382019490945260409283019091208251608081018452905463ffffffff808216835264010000000082048116938301939093526801000000000000000081049092169281018390526c0100000000000000000000000090910490921660608301529091508510610e705750610e94565b604081015163ffffffff1685900383811015610e9157816060015194508093505b50505b600101610db5565b5073ffffffffffffffffffffffffffffffffffffffff821615610f495773ffffffffffffffffffffffffffffffffffffffff8216600090815260036020526040902054600164010000000090910463ffffffff161115610f495773ffffffffffffffffffffffffffffffffffffffff8216600090815260036020526040902080547fffffffffffffffffffffffffffffffffffffffffffffffff00000000ffffffff166401000000001790555b600054604080518881526020810188905273ffffffffffffffffffffffffffffffffffffffff851692339261010090910461ffff16917f8bf88a7d93d9907c8bd24e204d8e69d0703a0c1940305ced70d7eff7328535d5910160405180910390a450505050919050565b6000805b8281101561103b5761102f678ac7230489e80000670494654067e10000600060019054906101000a900461ffff1661ffff1684600160008060018111156110005761100061207b565b60018111156110115761101161207b565b81526020019081526020016000205401671bc16d674ec800006118f8565b90910190600101610fb7565b50919050565b6000805b8281101561103b576110be680ad78ebc5ac6200000670494654067e10000600060019054906101000a900461ffff1661ffff16846001600060018081111561108f5761108f61207b565b60018111156110a0576110a061207b565b815260200190815260200160002054016702c68af0bb1400006118f8565b90910190600101611045565b600160005460ff1660028111156110e3576110e361207b565b1461114a576040517f08c379a000000000000000000000000000000000000000000000000000000000815260206004820152600f60248201527f47414d455f4e4f545f4143544956450000000000000000000000000000000000604482015260640161056b565b801561166c57600060028054806020026020016040519081016040528092919081815260200182805480156111b557602002820191906000526020600020905b815473ffffffffffffffffffffffffffffffffffffffff16815260019091019060200180831161118a575b50506000805494955061010090940461ffff16939250849150600390508306815181106111e4576111e461210c565b602002602001015190506000806111fa83610364565b600080546bffffffffffffffffffffffff166c0100000000000000000000000073ffffffffffffffffffffffffffffffffffffffff8816908102919091179091556040517f0c73edf400000000000000000000000000000000000000000000000000000000815292945090925090630c73edf490621e848090611283908690869060040161202d565b600060405180830381600088803b15801561129d57600080fd5b5087f1935050505080156112af575060015b50600080546bffffffffffffffffffffffff1681555b60038110156113f05760008682815181106112e2576112e261210c565b60209081029190910181015173ffffffffffffffffffffffffffffffffffffffff811660009081526003909252604090912080547fffffffffffffffffffffffffffffffffffffffff00000000ffffffffffffffff8116640100000000820463ffffffff908116680100000000000000009384900482160116918202178255919250906103e8116113e65760405173ffffffffffffffffffffffffffffffffffffffff83169088907fdbd1b0276f9d9bb5b5c4ef9762dcff274df8d6e3a34a15f75c4335b6f1a4c32390600090a35050600080547fffffffffffffffffffffffffffffffffffffffffffffffffffffffffffffff0016600217905550505050505050565b50506001016112c5565b50600384066000036115ad5760005b6003811015611597576000805460408051630100000090920468ffffffffffffffffff16602083015201604080518083037fffffffffffffffffffffffffffffffffffffffffffffffffffffffffffffffe00181529190528051602090910120600080547fffffffffffffffffffffffffffffffffffffffff000000000000000000ffffff16630100000068ffffffffffffffffff909316928302178155909150600383900382816114b3576114b3612187565b068301905060008884815181106114cc576114cc61210c565b602002602001015190508882815181106114e8576114e861210c565b60200260200101518985815181106115025761150261210c565b602002602001019073ffffffffffffffffffffffffffffffffffffffff16908173ffffffffffffffffffffffffffffffffffffffff16815250508089838151811061154f5761154f61210c565b602002602001019073ffffffffffffffffffffffffffffffffffffffff16908173ffffffffffffffffffffffffffffffffffffffff16815250505050508060010190506113ff565b5084516115ab906002906020880190611edc565b505b600080547fffffffffffffffffffffffffffffffffffffffffffffffffffffffffff0000ff166101006001870161ffff16908102919091179091557f3bfdd2780afdef6c93ebf656262d041ecddb8a652aeb00a902470b012a7496ed611611610719565b61161b6001610fb3565b6116256001611041565b604051611634939291906121b6565b60405180910390a250507fffffffffffffffffffffffffffffffffffffffffffffffffffffffffffffffff909301925061114a915050565b50565b6002818154811061167f57600080fd5b60009182526020909120015473ffffffffffffffffffffffffffffffffffffffff16905081565b6060600280548060200260200160405190810160405280929190818152602001828054801561170b57602002820191906000526020600020905b815473ffffffffffffffffffffffffffffffffffffffff1681526001909101906020018083116116e0575b5050505050905060005b60038110156118e157600181015b60038110156118d857600360008484815181106117425761174261210c565b602002602001015173ffffffffffffffffffffffffffffffffffffffff1673ffffffffffffffffffffffffffffffffffffffff16815260200190815260200160002060000160089054906101000a900463ffffffff1663ffffffff16600360008584815181106117b4576117b461210c565b60209081029190910181015173ffffffffffffffffffffffffffffffffffffffff1682528101919091526040016000205468010000000000000000900463ffffffff1611156118d05760008383815181106118115761181161210c565b6020026020010151905083828151811061182d5761182d61210c565b60200260200101518484815181106118475761184761210c565b602002602001019073ffffffffffffffffffffffffffffffffffffffff16908173ffffffffffffffffffffffffffffffffffffffff1681525050808483815181106118945761189461210c565b602002602001019073ffffffffffffffffffffffffffffffffffffffff16908173ffffffffffffffffffffffffffffffffffffffff1681525050505b600101611723565b50600101611715565b5090565b600064010000000082106118e157600080fd5b6000670de0b6b3a764000061197e876119796119746119208a670de0b6b3a764000003611996565b611937670de0b6b3a764000060018b010289611c54565b670de0b6b3a76400007fffffffffffffffffffffffffffffffffffffffffffffffffffffffffffffffff8c010203670de0b6b3a764000091020590565b611c78565b611eb7565b8161198b5761198b612187565b049695505050505050565b6000808213611a01576040517f08c379a000000000000000000000000000000000000000000000000000000000815260206004820152600960248201527f554e444546494e45440000000000000000000000000000000000000000000000604482015260640161056b565b5060606fffffffffffffffffffffffffffffffff821160071b82811c67ffffffffffffffff1060061b1782811c63ffffffff1060051b1782811c61ffff1060041b1782811c60ff10600390811b90911783811c600f1060021b1783811c909110600190811b90911783811c90911017609f81810383019390931b90921c6c465772b2bbbb5f824b15207a3081018102821d6d0388eaa27412d5aca026815d636e018102821d6d0df99ac502031bf953eff472fdcc018102821d6d13cdffb29d51d99322bdff5f2211018102821d6d0a0f742023def783a307a986912e018102821d6d01920d8043ca89b5239253284e42018102821d6c0b7a86d7375468fac667a0a527016c29508e458543d8aa4df2abee7882018202831d6d0139601a2efabe717e604cbb4894018202831d6d02247f7a7b6594320649aa03aba1018202831d7fffffffffffffffffffffffffffffffffffffff73c0c716a594e00d54e3c4cbc9018202831d7ffffffffffffffffffffffffffffffffffffffdc7b88c420e53a9890533129f6f01820290921d7fffffffffffffffffffffffffffffffffffffff465fda27eb4d63ded474e5f83201027ffffffffffffffff5f6af8f7b3396644f18e157960000000000000000000000000105711340daa0d5f769dba1915cef59f0815a5506027fffffffffffffffffffffffffffffffffffffffffffffffffffffffffffffffa0919091017d0267a36c0c95b3975ab3ee5b203a7614a3f75373f047d803ae7b6687f2b302017d57115e47018c7177eebf7cd370a3356a1b7863008a5ae8028c72b88642840160ae1d90565b670de0b6b3a7640000828102908105831482151516611c7257600080fd5b05919050565b60007ffffffffffffffffffffffffffffffffffffffffffffffffdb731c958f34d94c18213611ca957506000919050565b680755bf798b4a1bf1e58212611d1b576040517f08c379a000000000000000000000000000000000000000000000000000000000815260206004820152600c60248201527f4558505f4f564552464c4f570000000000000000000000000000000000000000604482015260640161056b565b6503782dace9d9604e83901b059150600060606bb17217f7d1cf79abc9e3b39884821b056b80000000000000000000000001901d6bb17217f7d1cf79abc9e3b39881029093037fffffffffffffffffffffffffffffffffffffffdbf3ccf1604d263450f02a550481018102606090811d6d0277594991cfc85f6e2461837cd9018202811d7fffffffffffffffffffffffffffffffffffffe5adedaa1cb095af9e4da10e363c018202811d6db1bbb201f443cf962f1a1d3db4a5018202811d7ffffffffffffffffffffffffffffffffffffd38dc772608b0ae56cce01296c0eb018202811d6e05180bb14799ab47a8a8cb2a527d57016d02d16720577bd19bf614176fe9ea6c10fe68e7fd37d0007b713f765084018402831d9081019084017ffffffffffffffffffffffffffffffffffffffe2c69812cf03b0763fd454a8f7e010290911d6e0587f503bb6ea29d25fcb7401964500190910279d835ebba824c98fb31b83b2ca45c000000000000000000000000010574029d9dc38563c32e5c2f6dc192ee70ef65f9978af30260c3939093039290921c92915050565b8181028215838205831417611ecb57600080fd5b670de0b6b3a7640000900592915050565b828054828255906000526020600020908101928215611f56579160200282015b82811115611f5657825182547fffffffffffffffffffffffff00000000000000000000000000000000000000001673ffffffffffffffffffffffffffffffffffffffff909116178255602090920191600190910190611efc565b506118e19291505b808211156118e15760008155600101611f5e565b600060208284031215611f8457600080fd5b813573ffffffffffffffffffffffffffffffffffffffff81168114611fa857600080fd5b9392505050565b600081518084526020808501945080840160005b83811015612022578151805163ffffffff9081168952848201518116858a01526040808301519091169089015260609081015173ffffffffffffffffffffffffffffffffffffffff169088015260809096019590820190600101611fc3565b509495945050505050565b6040815260006120406040830185611faf565b90508260208301529392505050565b60006020828403121561206157600080fd5b5035919050565b602081526000611fa86020830184611faf565b7f4e487b7100000000000000000000000000000000000000000000000000000000600052602160045260246000fd5b60208101600383106120e5577f4e487b7100000000000000000000000000000000000000000000000000000000600052602160045260246000fd5b91905290565b6000602082840312156120fd57600080fd5b813560028110611fa857600080fd5b7f4e487b7100000000000000000000000000000000000000000000000000000000600052603260045260246000fd5b600063ffffffff8381169083168181101561217f577f4e487b7100000000000000000000000000000000000000000000000000000000600052601160045260246000fd5b039392505050565b7f4e487b7100000000000000000000000000000000000000000000000000000000600052601260045260246000fd5b6060815260006121c96060830186611faf565b6020830194909452506040015291905056fea164736f6c634300080d000a",
    "linkReferences": {}
  },
  "methodIdentifiers": {
    "buyAcceleration(uint256)": "361401f4",
    "buyShell(uint256)": "4e7444c4",
    "cars(uint256)": "f7746e36",
    "currentCar()": "29af11bf",
    "entropy()": "47ce07cc",
    "getAccelerateCost(uint256)": "503a6982",
    "getActionsSold(uint8)": "f9fa47ee",
    "getAllCarData()": "37c0d8d3",
    "getAllCarDataAndFindCar(address)": "0d93582a",
    "getCarData(address)": "9d18e79f",
    "getShellCost(uint256)": "54192e41",
    "play(uint256)": "6898f82b",
    "register(address)": "4420e486",
    "state()": "c19d93fb",
    "turns()": "401c0347"
  },
  "id": 8
}